:020000040800F2
:1000000000C00120991F0008D11E0008D31E00085F
:10001000D51E0008D71E0008D91E000800000000E9
:10002000000000000000000000000000DB1E0008CF
:10003000DD1E000800000000DF1E0008E11E0008B1
:10004000E91F0008E91F0008E91F0008E91F000870
:10005000E91F0008E91F0008E91F0008E91F000860
:10006000E91F0008E91F0008E91F0008E91E000851
:10007000E91F0008E91F0008E91F0008E91F000840
:10008000E91F0008E91F0008E91F0008E91F000830
:10009000E91F0008E91F0008E91F0008E91F000820
:1000A000E91F0008E91F0008E91F0008E91F000810
:1000B000E91F0008F91E0008091F0008E91F0008D1
:1000C000E91F0008E91F0008E91F0008E91F0008F0
:1000D000E91F0008191F0008E91F0008E91F0008B0
:1000E000E91F0008E91F0008E91F0008E91F0008D0
:1000F000E91F0008E91F0008E91F0008E91F0008C0
:1001000000000000E91F000800000000E91F0008CF
:10011000E91F0008E91F0008E91F0008E91F00089F
:10012000E91F0008E91F0008E91F0008E91F00088F
:10013000E91F00080000000000000000E91F00089F
:10014000E91F0008E91F000800000000000000008F
:10015000000000000000000000000000000000009F
:10016000000000000000000000000000E91F00087F
:10017000E91F0008E91F0008E91F0008E91F00083F
:10018000E91F0008E91F000800000000000000004F
:100190000000000000000000851F0008E91F0008A3
:1001A0000000000000000000E91F0008E91F00082F
:1001B000E91F0008E91F0008E91F0008E91F0008FF
:1001C000E91F0008E91F0008E91F0008E91F0008EF
:0801D000E91F0008E91F000807
:1001D8004FF0FF3C06E000BF4FF0010C02E000BF0B
:1001E8004FF0010C4DF804CD4FEA40024FEA4103AD
:1001F8007FEA226C18BF7FEA236C11D001B052EA63
:10020800530C18BF90EA010F58BFB2EB030088BF28
:10021800C81738BF6FEAE17018BF40F00100704797
:100228007FEA226C02D15FEA402C05D17FEA236C79
:10023800E4D15FEA412CE1D05DF8040B704700BFC0
:10024800844608466146FFE70FB5FFF7C9FF002857
:1002580048BF10F1000F0FBD4DF808EDFFF7F4FF90
:100268000CBF012000205DF808FB00BF4DF808ED29
:10027800FFF7EAFF34BF012000205DF808FB00BF4C
:100288004DF808EDFFF7E0FF94BF012000205DF86E
:1002980008FB00BF4DF808EDFFF7D2FF94BF01201F
:1002A80000205DF808FB00BF4DF808EDFFF7C8FF18
:1002B80034BF012000205DF808FB00BF42000ED2C9
:1002C800B2F1FE4F0BD34FF09E03B3EB126209D489
:1002D8004FEA002343F0004323FA02F070474FF03F
:1002E8000000704712F1610F01D1420202D14FF0B4
:1002F800FF3070474FF00000704700BF53B94AB94C
:10030800002908BF00281CBF4FF0FF314FF0FF3015
:1003180000F00CB8ADF1080C6DE904CE05F07CFDD9
:10032800DDF804E0DDE9022304B07047704700BF40
:10033800844641EA000313F003036DD1403A41D3E8
:1003480051F8043B40F8043B51F8043B40F8043BA7
:1003580051F8043B40F8043B51F8043B40F8043B97
:1003680051F8043B40F8043B51F8043B40F8043B87
:1003780051F8043B40F8043B51F8043B40F8043B77
:1003880051F8043B40F8043B51F8043B40F8043B67
:1003980051F8043B40F8043B51F8043B40F8043B57
:1003A80051F8043B40F8043B51F8043B40F8043B47
:1003B80051F8043B40F8043B51F8043B40F8043B37
:1003C800403ABDD2303211D351F8043B40F8043BD7
:1003D80051F8043B40F8043B51F8043B40F8043B17
:1003E80051F8043B40F8043B103AEDD20C3205D3E7
:1003F80051F8043B40F8043B043AF9D2043208D0DF
:10040800D2071CBF11F8013B00F8013B01D30B8850
:1004180003806046704700BF082A13D38B078DD02E
:1004280010F003038AD0C3F10403D21ADB071CBF00
:1004380011F8013B00F8013B80D331F8023B20F86A
:10044800023B7BE7043AD9D3013A11F8013B00F8A3
:10045800013BF9D20B7803704B7843708B7883702B
:10046800604670470348044B834202D0034B03B1F4
:1004780018477047100000201000002000000000FE
:100488000548064B1B1AD90F01EBA301491002D0EE
:10049800034B03B1184770471000002010000020DC
:1004A8000000000010B5064C237843B9FFF7DAFFC7
:1004B800044B13B10448AFF300800123237010BD2F
:1004C80010000020000000000063000808B5054B7C
:1004D8001BB105490548AFF30080BDE80840FFF7A8
:1004E800CFBF00BF00000000140000200063000818
:1004F8000B88DAB2504080EA0010C0B21B0A43EA07
:1005080000231BB283EAC00383EA10130B807047F1
:1005180030B583B004464FF6FF73ADF8063006E0F9
:100528000DF1060114F8010BFFF7E2FF29464B1EF7
:100538009DB20029F4D1BDF8060003B030BD70B5F6
:1005480006460C4605E0314614F8010BFFF7D0FFCC
:100558002A46531E9DB2002AF5D170BD2DE9F04FF1
:10056800C9B081460C46D0F808A0D0F80CB0036991
:10057800019341698369C2690292026A0392426ADD
:100588000492002005E054F8202008AD45F820200A
:1005980001300F28F7DD102022E0821E08AC54F845
:1005A80022404FEAF44282EA744282EA9422C41F4B
:1005B80008AD55F824402244A0F10F0455F8245002
:1005C8004FEAB54484EAF51484EAD5042244A0F13C
:1005D800100408AD55F82440224445F82020013085
:1005E8003F28DADDDDF810E0039E029F1A468846B0
:1005F800019C5D46D4460020CDF814A0CDF818B073
:10060800079130E04FEAF22181EAB21181EA726182
:10061800714402EA070E26EA020A8EEA0A0E8E449E
:10062800244951F820100EEB010A08A951F82010AE
:100638008A444FEA7C3E8EEABC0E8EEABC5E85EAAE
:10064800040101EA0C0105EA040B81EA0B0171447B
:100658000130B6463E46174608EB0A02A0462C462D
:1006680065460AEB010C3F28CCDDDDF814A0DDF867
:1006780018B007990CEB0A00C9F808005D44C9F8DE
:100688000C5001980444C9F810404144C9F81410AA
:100698001A44C9F81820029B1F44C9F81C70039B10
:1006A8001E44C9F82060049B7344C9F8243049B03B
:1006B800BDE8F08F8463000800B54FF0060C4FF0DA
:1006C800000EE64520D20EEB0C0301335A0823F046
:1006D800010101EB53030E4951F8233083420ED830
:1006E80083420FD302EB4203094951F82330834276
:1006F8000CD102EB420201EB82005DF804FB02F12F
:10070800FF3CDEE79646DCE77246EBE70020F4E7BD
:1007180030630008017042707047000000B583B074
:100728000E4B9A6C42F004029A649A6C02F004022E
:100738000092009A9A6C42F001029A649B6C03F052
:1007480001030193019B002211460B2002F046F998
:100758000B2002F053F903B05DF804FB00100240CF
:1007680070B50E4615460A4C02464FF48051204695
:1007780002F0CBFD32464FF40051204602F0C5FD91
:100788002A464FF48041204602F0BFFD70BD00BFED
:1007980000080048F8B5076846684FF001050021D1
:1007A8008068FFF759FD08B14FF00005EDB24FF032
:1007B800010400213046FFF74FFD08B14FF0000457
:1007C800E4B24FF0010600213846FFF745FD08B1B5
:1007D8004FF000062A46214606F00100FFF7C0FF49
:1007E800F8BD000070B58AB00024059406940794FB
:1007F80008940994204BDA6C42F00402DA64DA6C4B
:1008080002F004020192019ADA6C42F02002DA64E2
:10081800DA6C02F020020292029ADA6C42F00202CA
:10082800DA64DA6C02F002020392039ADA6C42F09C
:100838000102DA64DB6C03F001030493049B0F4D9F
:1008480022464FF4E041284602F05FFD4FF4E043B2
:100858000593012606960794089405A9284602F0F0
:100868005FFC4FF4407305930694079605A9284644
:1008780002F056FC0AB070BD0010024000080048A3
:1008880000B1704708B5024804F0EEF908BD00BF92
:10089800500700202DE9F04190B080460F461646DB
:1008A800056805EBC2030360AB4202D2436801331B
:1008B8004360C5F3C5050BE008F128002246394618
:1008C8002844FFF735FD25442744361B402D06D024
:1008D80036B3C5F14004A642EED23446ECE708F13F
:1008E8002802002314E002EB830E0DEB830C9EF824
:1008F80003100DF823109EF802108CF801109EF8D2
:1009080001108CF8021012F823108CF80310013330
:100918000F2BE8DD69464046FFF720FE0025D7E7A4
:1009280010B0BDE8F0812DE9F04105460E46CC78BF
:100938008A78FE2A01D00C3117E0027044708B7956
:100948008370CB79C3700B7A03714B7A4371CA7881
:100958000C310630FFF7ECFCF37806331D444FF0FA
:100968000508002730E0013CE4B2012C04D90B193A
:1009780013F8013C002BF6D02A706C703379AB70F9
:100988007379EB70B3792B71F3796B71337AAB713F
:10099800737AEB71737AB27A43EA0223F27A43EA02
:1009A80002431B0A2B72F37A6B72224605F10A0086
:1009B800FFF7BEFC04F10A031D44377917F001075D
:1009C8000FD04FF009080D2733882B7033881B0A86
:1009D8006B704FB908EB0403F818033080B2BDE818
:1009E800F0814FF00908EFE73A4606F58B71A81C2D
:1009F800FFF79EFCEEE7F0B593B005460E46046897
:100A0800E408C4F1770404F03F0480238DF8003033
:100A1800472200210DF1010005F08CFB2B6804F141
:100A280050026A4402F8483C190A04F14F026A4429
:100A380002F8481C190C04F14E026A4402F8481CDA
:100A48001B0E04F14D026A4402F8483C6B6804F13D
:100A58004C026A4402F8483C190A04F14B026A4401
:100A680002F8481C190C04F14A026A4402F8481CAE
:100A78001B0E04F149020DEB020707F8483C04F18C
:100A8800090269462846FFF705FFEB7A3370AB7A0F
:100A980073706B7AB3702B7AF370EB7B3371AB7B2B
:100AA800737113B0F0BD0000002859D070B59CB028
:100AB8000C4616461D460146007810F0010001D18B
:100AC8001CB070BD4B78A4460CF8013BD1E9022359
:100AD800CDE900230098C4F80100BDF80430ACF853
:100AE80004308B68CA68013342F100028B60CA6027
:100AF8000023029303931B4B04931B4B05931B4B3F
:100B080006931B4B07931B4B08931B4B09931B4BDB
:100B18000A9303F17453A3F52303A3F692430B93AB
:100B28002022103102A8FFF7B5FE2A46314602A856
:100B3800FFF7B0FE9DF88420209902A8FFF7AAFECF
:100B48000222229902A8FFF7A5FE0722214602A841
:100B5800FFF7A0FEE11D02A8FFF74DFF0D20AFE74C
:100B68000020704767E6096A85AE67BB72F36E3C82
:100B78003AF54FA57F520E518C68059BABD9831F60
:100B88002DE9F04788B004461D469DF840C01B7B00
:100B980013F0020308D1286998B1007810F0010F0A
:100BA80012D100273E4601E000273E467BB1FE20D9
:100BB800A0704FF00608E3B904F10C0E9DF844C08C
:100BC8000EE000273E46F1E701270D26EEE7FD205F
:100BD800A0704FF00A08EEE70CF1FF3C5FFA8CFCBE
:100BE800BCF1010F05D90EEB0C0010F8010C002820
:100BF800F2D084F803C0E1712272002222710FB191
:100C08000122227100226271AA79A2710132AA71AD
:100C1800A2788DF81420E2788DF81520002B3AD0B0
:100C2800A3798DF81630E3798DF81730237A8DF88B
:100C38001830637A8DF81930C24608F1FF3189B24D
:100C48000DF11500FFF764FCADF8120004F10C0972
:100C5800E27849460DF11200FFF771FC0DF112011F
:100C68009DF84800FFF744FCE3789DF8122009F846
:100C78000320E3780133BDF81220110A09F80310A4
:100C880022803FBBE3789A4406EB0A00023080B228
:100C980008B0BDE8F08723798DF8163063798DF8B0
:100CA8001730A3798DF81830E3798DF81930237A45
:100CB8008DF81A30637AA27A43EA0223E27A43EA89
:100CC80002438DF81B301A128DF81C201B148DF866
:100CD8001D30B1E7E37809EB030202920193CDF8E6
:100CE8000090434605AA04F58B712869FFF7DCFEDE
:100CF800C8E7000010B588B086460C4694460C9AA2
:100D080005928DF818309DF828308DF819309DF827
:100D18002C308DF81A309DF834308DF81B300323B1
:100D28008DF81C3005AB03CBCCF80C00CCF81010B8
:100D38001B788CF8143000238CF809308CF80A30B2
:100D48008CF80B3032230293092301930093044B50
:100D5800224671466046FFF713FF08B010BD00BF7A
:100D6800B804002000B5ADF5197D032303930023D3
:100D78000293802301930823009309234FAA0C218F
:100D88000120FFF7B7FF4FA904A8FFF7CCFD0246E3
:100D980004A9034803F068FF0DF5197D5DF804FB0D
:100DA800500700202DE9F0478CB0054616469DF8FF
:100DB800504000EB4000604A02EBC002127B12F088
:100DC800020211D15C4B03EBC0031B6943B11B78D2
:100DD80013F0010F06D100231F468BB301222FE029
:100DE8000023F9E70123F7E7FF291AD8FE228DF837
:100DF80024208DF8253005EB45004F4A02EBC00250
:100E080092798DF826204D4A10788DF8270052786F
:100E18008DF828208DF829101C4600274FF005086A
:100E280038E0454B05EB450203EBC202927805EB2F
:100E3800450503EBC50301329A7062E0013CE4B258
:100E4800012C04D9331913F8013C002BF6D0FD23EB
:100E58008DF824308DF825408DF8262000238DF854
:100E6800273005EB4502344B03EBC2039B798DF821
:100E78002830324B1A788DF829205B788DF82A3083
:100E88008DF82B100B0A8DF82C30090C8DF82D10CD
:100E98004FF0090805EB4502274B03EBC2039A798B
:100EA80001329A71C24641460DF12500FFF730FB29
:100EB800ADF82E00A146224631460DF12E00FFF76F
:100EC8003EFB0DF12E019DF85400FFF711FBBDF814
:100ED8002E308DF820301B0A8DF82130A7B9002458
:100EE8000AF1010209A92846FFF7CAFC4A46314619
:100EF8002846FFF7C5FC022208A92846FFF7C0FCD0
:100F0800A4B90CB0BDE8F08705EB45030A4800EB2F
:100F1800C30008AB02930194009608F1010309AAE3
:100F280004A90069FFF7C0FD0446D9E7224604A9D1
:100F38002846FFF7A5FCE4E7B8040020A80900202C
:100F480000B583B00A46D9230193162300934FF4C2
:100F58009671FFF727FF03B05DF804FB10B586B064
:100F6800EC46084C0FCCACE80F0094E803004CF8B2
:100F7800040BACF8001069460020FFF7E1FF06B04B
:100F880010BD00BF1863000800B583B00A463523BA
:100F98000193032300930A21FFF704FF03B05DF8D0
:100FA80004FB08B503460846DA7800210160416071
:100FB8000172092A28BF092203F10C01FFF7B8F9C9
:100FC80008BD08B5844608469CF8032000230B603A
:100FD8004B608B60CB600B618B82162A28BF162270
:100FE8000CF10C01FFF7A4F908BD70B505460C46D5
:100FF800C678212E28BF212621220021204605F06F
:1010080099F8324605F10C012046FFF791F970BDB9
:10101800002800F0DA802DE9F043A1B00C4615460F
:10102800064602F1020902F58B7802F21D17002329
:1010380006930793664B0893664B0993664B0A938E
:10104800664B0B93664B0C93664B0D93664B0E9356
:1010580003F17453A3F52303A3F692430F932022BD
:1010680000F1100106A8FFF715FC0A22494606A858
:10107800FFF710FCEA7805F10C0106A8FFF70AFC57
:10108800022205F58A7106A8FFF704FC07224146EB
:1010980006A8FFF7FFFB04A906A8FFF7ACFC062289
:1010A800394604A805F016F830B1022386F8343022
:1010B800002021B0BDE8F08395F8167100220023C6
:1010C800CDE9022305F2171ED5F817010290B5F8ED
:1010D8001B31ADF80C300CB1002306E0032386F871
:1010E80034300020E5E701339BB222889A4215D9B3
:1010F80095F807C003EBC3002044C1788C45F2D1B2
:10110800287A03EBC301214409798842EBD103EB28
:10111800C308A04498F80210B942E4D19A4223D1F6
:101128000F2A17D80299314811EB000C039840F1A7
:101138000008B068F168844578EB01000FD3E879BE
:1011480003EBC3012144C870287A08718F700132FB
:1011580022801DE0042386F834300020A9E7052307
:1011680086F834300020A4E700200021CDE90001F2
:1011780003EBC3022244D2F805000090B2F809201C
:10118800ADF80420029A90420399019A8A4117D235
:1011980003EBC3031C44D5F81731C4F80530BEF877
:1011A8000430A4F809300299039AB068F3688842B9
:1011B800934101D2B160F260012086F8340078E7EB
:1011C800062386F83430002073E70120704700BFFB
:1011D80067E6096A85AE67BB72F36E3C3AF54FA5C0
:1011E8007F520E518C68059BABD9831F808D5B00A5
:1011F8002DE9F04383B005460C4690461F460A9EEB
:1012080000230B70CB780F2B7BD8DFE813F010008E
:101218001000340050006B009900A900B900C90003
:10122800E80005012701410175017501B001B8F118
:10123800FD0F11D0B8F1FE0F63D10223CB7000234C
:10124800C37080F802800B7B43F001030B734FF0EF
:10125800FF330370437054E00223CB700023C37044
:1012680080F802800B7B23F001030B734FF0FF33F0
:101278000370437045E080F8038000230B710388F6
:10128800ADF806300DF106014046FFF731F9BDF81B
:1012980006302B80237B13F0010F05D000232B7120
:1012A8006B710523E3702CE00323E37029E080F8D9
:1012B8000480B8F1010F07D98B7801338B700023B4
:1012C8000B700123CB701CE00388ADF806300DF1DC
:1012D80006014046FFF70CF9BDF806302B800423C1
:1012E800E3700EE080F805800388ADF806300DF154
:1012F80006014046FFF7FCF8BDF806302B800523B1
:10130800E3702378012B00F063810FB1EB78FB7059
:1013180066B1E378F37023793371637901337371BC
:1013280023893381A3787381237B33730023A370CC
:101338002378022B00F05581207803B0BDE8F083B4
:1013480080F806800388ADF806300DF106014046A6
:10135800FFF7CEF8BDF806302B800623E370D0E700
:1013680080F807800388ADF806300DF10601404685
:10137800FFF7BEF8BDF806302B800723E370C0E7FF
:1013880080F808800388ADF806300DF10601404664
:10139800FFF7AEF8BDF806302B800823E370B0E7FE
:1013A80080F8098000238372C3720388ADF8063081
:1013B8000DF106014046FFF79BF8BDF806302B807B
:1013C800237B13F0010F07D0EB7813B10B23E370E5
:1013D80097E70C23E37094E70923E37091E7437AD6
:1013E800827A43EA0223C27A43EA024343EA0822A2
:1013F8004372C2F307238372120CC2720388ADF8DA
:1014080006300DF106014046FFF772F8BDF80630C8
:101418002B800A23E37074E7437A827A43EA022333
:10142800C27A43EA024343EA08424372C3F30723FA
:101438008372130CC3720388ADF806300DF10601F0
:101448004046FFF755F8BDF806302B80EB7813B10E
:101458000B23E37055E70C23E37052E700F10C030C
:101468000A79511C217103F802800388ADF806300F
:101478000DF106014046FFF73BF8BDF806302B801A
:101488002279EB789A427FF43CAF0C23E37038E77B
:10149800437A827A43EA0223C07A43EA0040FFF79C
:1014A8000BF9814618B300792B88ADF806300DF199
:1014B8000601FFF71DF8BDF806302B80DBB2984512
:1014C80017D00E23E37085F81481B9F1000F3FF4AB
:1014D80018AF237999F806209342BFF412AF05F1AB
:1014E8000C00D21A0021184404F024FE09E7002059
:1014F800DAE70D23E370E6E70E2B03D00388B8EB99
:10150800132F12D00223237085F815812B7913F03D
:10151800010F0DD00F23E3700D2363732378022B83
:101528003FF4EFAE00232370EBE601230B70EBE7EB
:10153800236983B11A6B4AB16B7AA97A43EA01230A
:10154800E97A43EA01412046904720B92378022BE3
:1015580001D0032323700123E370002F3FF4D1AEA1
:1015680040F2231229463846FEF7E2FEC9E64B7BD5
:10157800C3F10D03034483F816814B7B013BDBB2B7
:101588004B73002B7FF4BDAE024649692069FFF713
:101598003FFD78B923691B6B4BB16A7AA97A42EA95
:1015A8000122E97A42EA01412046984710B903230B
:1015B800237001E0012323700123E370002F3FF41F
:1015C800A0AE40F2231229463846FEF7B1FE98E64F
:1015D800AB79637123890BB90022628101332381BE
:1015E80093E6002F3FF4A8AE95F8143195F815212D
:1015F80043EA02233B809FE630B583B004460D469C
:1016080000EB4000009313460A461A4901EBC0015B
:1016180040F2231C18480CFB0400FFF7E9FD831E69
:10162800DBB2012B01D903B030BD124904EB4403EE
:10163800D80001EBC3039A7801329A7000220A5449
:101648000122DA70FD2D01D00020ECE704EB440202
:1016580001EBC2030222DA70074940F2231303FBAD
:1016680004F40B190022DA704FF0FF320A555A7051
:10167800EAE700BFB80400202C00002070B582B053
:101688000E4E4FF48051304601F038FE05464FF4B7
:101698000051304601F032FE04464FF48041304696
:1016A80001F02CFE8DF804508DF805408DF80600E9
:1016B80001A90020FFF768FC02B070BD00080048CF
:1016C80008B5838B642B13D0B3F5007F14D1006861
:1016D800FEF7F4FD80B20A2806D0B0F5967F0DD14A
:1016E800FFF73CFC012008E0FFF7C8FF012004E0F9
:1016F800FFF750F8012000E0002008BD0020FCE7BB
:1017080010B592B00446437A827A43EA0223C27A39
:1017180043EA02434C2B1CD0B3F5967F0ED013B18D
:10172800002012B010BD4FF48041164801F0F2FDC0
:1017380009A92046FFF735FC0120F2E74FF4804164
:10174800104801F0E7FD09A92046FFF73AFC0120FF
:10175800E7E74FF400510B4801F0DCFD69462046ED
:10176800FFF743FC0DF1240C6C460FCCACE80F00DE
:101778000FCCACE80F002368CCF8003009A8FFF7BD
:101788009FFFCEE70008004830B5D1B005460024D9
:1017980001E00134A4B20A4B1B889BB2A3420CD9C6
:1017A80001AB07AA295D0020FFF726FF0028F0D02B
:1017B80001A907A8FFF7A4FFEBE751B030BD00BFB0
:1017C8001A05002010B5094A13889BB20849087801
:1017D800C0B2084CE05413889BB201339BB213800B
:1017E8000122054804F058FA10BD00BF3406002055
:1017F80018050020380600205007002072B6FEE7C2
:1018080010B58CB0002409940A940B942022214628
:1018180001A804F08FFC30484FF0A04303604FF458
:10182800403343608460C46004610123436104233E
:10183800836104774477036280F82440C4620463B8
:1018480080F83840C46380F8404000F041FC00282C
:1018580035D10023099309A91F4800F0B9FF0028D2
:101868002FD11E4B019306230293002303937F225B
:1018780004920422059206930DEB0201164800F02B
:1018880061FD00BB164B01930C23029301A912487A
:1018980000F058FDC8B9134B01931223029301A914
:1018A8000D4800F04FFD90B90F4B01931823029398
:1018B80001A9094800F046FD58B90CB010BDFFF762
:1018C8009DFFFFF79BFFFFF799FFFFF797FFFFF7D4
:1018D80095FFFFF793FF00BF3C090020001060321E
:1018E8000008302E0040C03A0080F03E00B58FB0AE
:1018F80000230A930B930C930D9307930893099372
:10190800009301930293039304930593069322484B
:10191800224A02600722426083604CF24F32C26062
:101928000361836102F056FE50BB4FF480530A9363
:101938000AA9194802F0A6FF20BB174802F07AFE50
:1019480010BB00230793099307A9134803F03AF83B
:10195800E0B9602300930022019202920492694642
:101968000D4802F0E5FE98B9042269460A4802F0DB
:10197800DFFE78B9084800F033FA0FB05DF804FBD1
:10198800FFF73CFFFFF73AFFFFF738FFFFF736FF97
:10199800FFF734FFFFF732FF2C0800200004004057
:1019A80000B589B000230493059306930793019328
:1019B800029303931348144A02609F224260836093
:1019C80040F2E732C2600361836102F003FE90B91E
:1019D8004FF48053049304A90A4802F053FF60B9F6
:1019E80000230193039301A9064802F0EBFF30B9E5
:1019F80009B05DF804FBFFF701FFFFF7FFFEFFF7F3
:101A0800FDFE00BFE00700200008004008B51048B0
:101A1800104B0360002343608360C3600374437406
:101A28008374A0224261012282610521C1610221E1
:101A3800016242628262C26202630322426383637A
:101A4800C36301F0ABF900B908BDFFF7D7FE00BFCB
:101A5800780800200068004008B51548154B036059
:101A68004FF46143436000238360C36003610C2229
:101A780042618361C36103624362836204F035F8A3
:101A880070B900210A4804F07DF958B900210848C6
:101A980004F09DF940B9064804F055F930B908BD7D
:101AA800FFF7ACFEFFF7AAFEFFF7A8FEFFF7A6FEBA
:101AB800500700200038014000B595B038220021B9
:101AC80006A804F037FB00200190029003900490D0
:101AD800059001F029FC012206924FF48033079308
:101AE80002230D9303210E910F9228221092119335
:101AF8001293139306A801F0D1FC80B90F23019328
:101B080003230293002303930493059304210DEB0D
:101B1800010001F07BFF20B915B05DF804FBFFF769
:101B28006DFEFFF76BFE000038B500F083FAFFF793
:101B3800C3FFFEF757FEFEF7F1FDFFF761FEFFF763
:101B4800D5FEFFF72DFFFFF761FFFFF785FF0022A6
:101B580011464FF0FF3000F041FF4FF0FF3000F02A
:101B68004DFF01221449154804F096F8144A1368E9
:101B780043F0100313600C2201211248FEF7CAFD3E
:101B8800012211461046FEF7EBFD002500F06EFA23
:101B9800044605F57A7383420AD30B4B1B78002B56
:101BA800F4D00A48FFF7F0FD074B00221A70EDE762
:101BB800FFF7D8F82546F0E7180500205007002061
:101BC80000380140A8090020190500201C05002044
:101BD80000B583B00B4B1A6E42F001021A661A6EFA
:101BE80002F001020092009A9A6D42F080529A65C2
:101BF8009B6D03F080530193019B01F01BFC03B024
:101C08005DF804FB0010024030B59DB00446002189
:101C18001791189119911A911B91502203A804F059
:101C280089FA2368B3F1A04F01D01DB030BD4FF43D
:101C3800004303934FF00053139303A802F00CF8EA
:101C4800002836D11E4BDA6C42F40052DA64DA6CA2
:101C580002F400520192019ADA6C42F00202DA644C
:101C6800DB6C03F002030293029B41F60303179314
:101C7800032318930025199517A9124801F050FA63
:101C88001148124B0360052343608560C5608023BB
:101C980003614FF4007343614FF4006383612023B1
:101CA800C361056200F0FAFE30B9074B63659C62B8
:101CB800BBE7FFF7A3FDC5E7FFF7A0FDF5E700BF0A
:101CC8000010024000040048DC0800200800024020
:101CD80010B59CB0044600211791189119911A91DA
:101CE8001B91502203A804F025FA22681D4B9A4242
:101CF80001D01CB010BD4FF4805303934FF0007314
:101D0800109303A801F0A8FF40BB174B9A6D42F04F
:101D180000729A659A6D02F000720192019ADA6C6B
:101D280042F00202DA64DB6C03F002030293029BC6
:101D38006023179302231893002419941A940923F3
:101D48001B9317A9094801F0EBF9224621465620B2
:101D580000F044FE562000F051FECAE7FFF74EFDA2
:101D6800D3E700BF006800400010024000040048AC
:101D780000B583B00368174A934205D0164A9342C8
:101D880015D003B05DF804FB144B9A6D42F00202C3
:101D98009A659B6D03F002030093009B0022114695
:101DA8001D2000F01BFE1D2000F028FEE9E70B4B6C
:101DB8009A6D42F004029A659B6D03F00403019347
:101DC800019B002211461E2000F008FE1E2000F094
:101DD80015FED6E70004004000080040001002404D
:101DE80000B587B0002301930293039304930593EE
:101DF80002680D4B9A4202D007B05DF804FB03F568
:101E08000333DA6C42F00402DA64DB6C03F0040397
:101E18000093009BC023019302230293059301A919
:101E2800024801F07DF9E7E7000400400008004897
:101E380010B59CB0044600211791189119911A9178
:101E48001B91502203A804F075F922681B4B9A4293
:101E580001D01CB010BD0123039303A801F0FCFEC0
:101E680040BB174B1A6E42F480421A661A6E02F48F
:101E780080420192019ADA6C42F00402DA64DB6C67
:101E880003F004030293029B302317930223189351
:101E9800002419941A9407231B9317A9094801F0E1
:101EA8003FF922462146252000F098FD252000F024
:101EB800A5FDCEE7FFF7A2FCD3E700BF003801403D
:101EC8000010024000080048FEE7FEE7FEE7FEE7D4
:101ED800FEE770477047704708B500F0BBF808BDCB
:101EE80008B5024800F0BBFE08BD00BFDC080020B2
:101EF80008B5024802F0F7F908BD00BF2C08002019
:101F080008B5024802F0EFF908BD00BFE00700205D
:101F180038B5134BDB6913F0100F03D1114802F0E9
:101F280029FF38BD0E4A136A43F0100313620E4BA3
:101F380001221A700D4C22880D4D92B229460D4887
:101F4800FEF7F6F923889BB20B4A1380228892B2D7
:101F58000021284604F0EEF800232380DEE700BFC6
:101F680000380140500700201905002034060020E1
:101F7800380600201C0500201A05002008B5024874
:101F880001F001F808BD00BF780800207047000084
:101F98000D4885460D480E490E4A002302E0D458E4
:101FA800C4500433C4188C42F9D30B4A0B4C002399
:101FB80001E013600432A242FBD3FFF7E7FF04F00D
:101FC8000BF9FFF7B1FDFEE700C00120000000207B
:101FD80010000020D864000810000020480B0020E2
:101FE800FEE70000104B1B680BB90120704710B5C5
:101FF80004464FF47A70B0FBF3F30C4A1068B0FB58
:10200800F3F000F0FFFC68B90F2C01D901200AE0B9
:10201800002221464FF0FF3000F0E0FC044B1C602A
:10202800002000E0012010BD040000200000002076
:102038000800002010B5032000F0BEFC0F20FFF7B9
:10204800D1FF10B10124204610BD0446FFF7C0FDA2
:10205800F9E70000034A1368034909680B44136051
:10206800704700BFAC09002004000020014B18682D
:10207800704700BFAC09002010B430300B0A9B0039
:1020880003F00C03C45801F01F014FF01F0C0CFAA9
:1020980001FC24EA0C0CC2F384628A404CEA020276
:1020A800C25010BC704710B414304B0E9B0003F0A4
:1020B8000403C458C1F304514FF0070C0CFA01FC97
:1020C80024EA0C0C8A404CEA0202C25010BC704749
:1020D80030B583B000230193002800F02381044623
:1020E800C36D13B323689A6812F0005F05D09A682D
:1020F80022F0204222F03F029A602268936813F08F
:10210800805F1FD1936823F0104323F03F0343F00F
:1021180080539360844B1B689B09844AA2FB03236A
:102128009B0901335B00019309E0FFF76DFD002374
:10213800236684F85830D5E7019B013B0193019B46
:10214800002BF9D12268936813F0805F2BD1E36DDF
:1021580043F01003E365236E43F001032366012077
:10216800936813F0040300D00123E16D11F0100F00
:1021780040F0D180002B40F0CE80E36D23F48173D2
:1021880043F00203E365936813F0010F29D1B2F11C
:10219800A04F0AD0664B9A4207D0664B9B6813F053
:1021A800010F1ED110E00020DAE74FF0A043996834
:1021B80011F0010100D001215D4B9B6813F0010370
:1021C80000D001230B430CD1B2F1A04F72D0584B71
:1021D8009A426DD0584963688A6822F47C12134386
:1021E8008B60627FE36B43EA4233E2681343A26881
:1021F800134394F8242043EA0243012A5CD0E26A9C
:1022080022B102F47872216B0A4313432168CD6826
:102218004A4A2A401A43CA602268136923F0406375
:10222800616B0B43136121688B6813F0040300D0C2
:1022380001238A6812F0080200D001224BBB42BB7E
:10224800237F94F83820520042EA8332CB6823F483
:10225800804323F002031343CB602369002B30D063
:102268002268136943F4803313612268D2F8C030BE
:1022780023F47F5323F03F0321690B43C2F8C03096
:1022880094F84030012B2BD02268136923F0010306
:1022980013616369012B35D02268136B23F00F0398
:1022A8001363E36D23F0030343F00103E36537E0B1
:1022B800234990E722498EE7A26A013A43EA42435A
:1022C8009DE72268136923F4803313612268D2F8EA
:1022D800C03023F47F5323F03F03C2F8C030CFE768
:1022E80021680B6923F4FF6323F00403626CA56C77
:1022F8002A43E56C2A43256D2A43134343F001031F
:102308000B61C6E721680B6B23F00F03226A013AC1
:1023180013430B63C5E7E36D43F01003E365012046
:1023280003B030BD0120FBE700000020632D3E050F
:102338000001005000040050000700500740F0FF63
:1023480000030050F0B583B00023019390F8583093
:10235800012B00F0318204460D46012380F85830E5
:102368000068836813F0040F09D0E36D43F020037D
:10237800E3650120002384F8583003B0F0BD0A68F3
:102388004968FFF779FE2068836813F0040300D0DA
:102398000123866816F0080600D00126002B3ED1DE
:1023A800002E3CD1AA68B2F1004F74D02968FFF71B
:1023B8007AFE2268536923F00043536169692268F1
:1023C800D368C3F3C1035B009940286904286FD020
:1023D800603252F820709F4B3B402F6807F0F84C52
:1023E80041EA0C010B4343F0004342F820302368D4
:1023F8002869AA69603353F8201021F080710A43D4
:1024080043F82020236829692A7F012A4DD06033A8
:1024180053F8212022F00072324343F82120236828
:102428009A6812F0010F12D12A68E8688A4988422E
:1024380000F0A580D3F8B010C2F3120221EA02021C
:10244800C3F8B020EA68844B9A4200F0A0802B6859
:10245800824A134200F0AA812268B2F1A04F00F02C
:1024680055817F498A4200F04E817E49896801F092
:10247800E0757D48834200F04B817C48834200F040
:1024880047817B48834200F069817A48834200F0A3
:10249800788100206EE700222968FFF704FE226891
:1024A800536943F00043536188E74FF00076AEE785
:1024B800136E116EC1F384612B68C3F3120078BBED
:1024C800C3F38463994233D021684B6E4A6EC2F3DA
:1024D80084622B68C3F3120078BBC3F384639A4207
:1024E80033D021688B6E8A6EC2F384622B68C3F383
:1024F800120078BBC3F384639A4233D02168CB6E51
:10250800CA6EC2F384622B68C3F3120078BBC3F3AC
:1025180084639A4283D1CB6E23F00043CB667EE777
:1025280093FAA3F313B1B3FA83F3CBE72023C9E7F4
:10253800136E23F000431366C6E793FAA3F313B1AF
:10254800B3FA83F3CBE72023C9E74B6E23F00043AC
:102558004B66C6E793FAA3F313B1B3FA83F3CBE759
:102568002023C9E78B6E23F000438B66C6E793FAF6
:10257800A3F313B1B3FA83F3CBE72023C9E7D3F866
:10258800B010C2F312020A43C3F8B0205AE7206819
:102598002B68C3F3120626BB9A0E013202F01F0203
:1025A800092A8CBF00220122002A65D046BB990E59
:1025B8000131890601F0F84176BB9F0E013707F01B
:1025C8001F070122BA401143AEBB9B0E013303F033
:1025D8001F0303EB43031B051943AA68FFF763FDB9
:1025E80035E793FAA3F24AB1B2FA82F2013202F065
:1025F8001F02092A8CBF00220122D5E72022F5E715
:1026080093FAA3F131B1B1FA81F10131890601F0F0
:10261800F841D1E72021F8E793FAA3F24AB1B2FAD8
:1026280082F2013202F01F024FF0010C0CFA02F2A2
:10263800C9E72022F5E793FAA3F343B1B3FA83F38A
:10264800013303F01F0303EB43031B05C4E72023F7
:10265800F6E700BF00F0FF0300007F40000008809D
:102668000001005000070050000021C31000C09076
:10267800000052C7000084CBCEB9990E01318906FB
:1026880001F0F841FEB99F0E013707F01F0701223C
:10269800BA40114336BB9B0E013303F01F0303EB13
:1026A80043031E3B1B0543F00073194395E793FA58
:1026B800A3F131B1B1FA81F10131890601F0F84194
:1026C800E0E72021F8E793FAA3F24AB1B2FA82F2DE
:1026D800013202F01F024FF0010C0CFA02F2D8E7A7
:1026E8002022F5E793FAA3F35BB1B3FA83F301333E
:1026F80003F01F0303EB43031E3B1B0543F000736A
:10270800D3E72023F3E701F50071AFE62B49ADE6E7
:1027180011F4000F7FF4B5AEB2F1A04F01D0002044
:1027280028E645F4000502F54072936823F0E0734B
:102738001D439560224B1B689B09224AA2FB032379
:102748009B09013303EB43039B000193019B1BB1DE
:10275800019B013B0193F9E700200BE611F0807F14
:102768007FF493AEB2F1A04F01D0002002E645F00D
:10277800807312498A6822F0E07213438B6000204C
:10278800F8E511F4800F13D10F4B9A4212D0B2F131
:10279800A04F09D00D4945F480038A6822F0E07201
:1027A80013438B600020E5E50449F4E70020E1E5E8
:1027B8000020DFE50020DDE50220DEE50003005013
:1027C80000000020632D3E05000100500007005066
:1027D80090F85820012A00F0A38010B49DB0034659
:1027E800012280F858200022189219920068B0F14E
:1027F800A04F3BD000220192019A002A39D092685A
:1028080012F0040200D00122846814F0040F78D179
:10281800002A76D1B0F1A04F37D0424A904231D049
:10282800414A0868002843D0906820F460404C680A
:1028380093F838C044EA4C34204390601868B0F1EB
:10284800A04F24D0374CA04221D03848806810F0DF
:10285800010F61D1906820F4716020F00F000C68BE
:10286800896821430843906000204FE02D4A019277
:10287800C2E7DA6D42F02002DA65002283F85820B8
:10288800012046E002F50072CBE7294AC9E74FF07C
:10289800A040846814F0010400D001242148806815
:1028A80010F0010000D001202043D3D000202DE0FB
:1028B800916821F4604191601968B1F1A04F0FD07F
:1028C800184881420CD01949896811F0010F25D1A7
:1028D800916821F4716121F00F019160002015E0E9
:1028E8004FF0A041886810F0010000D001200D4988
:1028F800896811F0010100D001210143E8D00020CE
:1029080004E0DA6D42F02002DA650120002283F843
:1029180058201DB010BC70470020F7E70020F5E7ED
:1029280002207047000100500007005000040050CA
:1029380000030050002807DB00F01F0240090123B4
:102948009340024A42F82030704700BF00E100E09F
:10295800002808DB0901C9B200F1604000F56140B8
:1029680080F80013704700F00F000901C9B2014B4D
:102978001954704714ED00E000B500F00700C0F1ED
:10298800070CBCF1040F28BF4FF0040C031D062BE5
:102998000FD9C31E4FF0FF3E0EFA0CF021EA0001DA
:1029A80099400EFA03FE22EA0E0241EA02005DF89F
:1029B80004FB0023EEE70000074AD36823F4E06332
:1029C8001B041B0C000200F4E060034343F0BF63E8
:1029D80043F40033D360704700ED00E010B50446BF
:1029E800054BD868C0F30220FFF7C6FF0146204612
:1029F800FFF7AEFF10BD00BF00ED00E008B5FFF720
:102A080099FF08BD0138B0F1807F0BD24FF0E02369
:102A18005861054AF02182F82310002098610722A6
:102A28001A6170470120704700ED00E003680C4A06
:102A3800934213D80B49DBB2083B0B4AA2FB032392
:102A4800426C22F003020A448264084AC264C3F357
:102A58000413012202FA03F3036570470449EAE705
:102A68000704024000080240CDCCCCCC80080240CC
:102A7800200802400379074A1A4492004265064A30
:102A88008265013B03F01F03012202FA03F3C365C9
:102A9800704700BF3F8200104009024000285BD009
:102AA80010B5044601682D4B99423DD82C4B0B4478
:102AB8002C4AA2FB03231B099B0043642A4B036493
:102AC800022384F825300A6822F4FF4222F07002BB
:102AD800A368E06803432069034360690343A0696E
:102AE8000343E0690343206A034313430B60204612
:102AF800FFF79CFFA368B3F5804F20D0A36C227921
:102B08001A60E36C226D5A606368013B032B19D984
:102B180000236365A365E3650020E063012384F86F
:102B2800253084F8240010BD104B0B440D4AA2FB3D
:102B380003231B099B0043640D4B0364C0E7002378
:102B48006360DBE72046FFF795FF636D00221A609C
:102B5800A36DE26D5A60DFE7012070470704024069
:102B6800F8FFFDBFCDCCCCCC00000240F8FBFDBF88
:102B780000040240034690F82520D2B2022A09D068
:102B88000422C2630120012283F82520002283F851
:102B98002420704701680A6822F00E020A60816CDE
:102BA8000A6822F480720A6001680A6822F0010249
:102BB8000A60426C02F01F01006C01228A404260E8
:102BC800DA6C196D51605A6D42B1116821F4807147
:102BD80011609A6DD96D51600020D4E70020D2E7CA
:102BE80008B590F82530DBB2022B09D00423C36363
:102BF800012380F82530002280F82420184608BDDB
:102C08000268136823F00E0313600268136823F048
:102C180001031360826C136823F480731360436CA0
:102C280003F01F02016C012393404B60C36C026DDB
:102C38005A60436D33B11A6822F480721A60836D4A
:102C4800C26D5A60012380F82530002380F82430B3
:102C5800836B13B198470020D1E70020CFE738B540
:102C6800036C196804682568436C03F01F03042289
:102C78009A400A4215D015F0040F12D0236813F0B9
:102C8800200F03D1236823F004032360436C03F06F
:102C98001F02016C042393404B60036B03B19847F8
:102CA80038BD02229A400A421CD015F0020F19D0F2
:102CB800236813F0200F06D1236823F00A0323604A
:102CC800012380F82530436C03F01F02016C0223B6
:102CD80093404B60002380F82430C36A002BDFD078
:102CE8009847DDE7082202FA03F30B42D8D015F023
:102CF800080FD5D0236823F00E032360436C03F03C
:102D08001F03016C012202FA03F34B60C26380F8CF
:102D18002520002380F82430436B002BC0D098472F
:102D2800BEE7000002681A4B9A4227D0194901648D
:102D3800D2F8803023F4F813D0F834C043EA0C43B7
:102D4800C2F8803001F1700343640268D2F8803021
:102D580023F07063D0F838C043EA0C63C2F88030BF
:102D680001F1B003836401F5C473C36401F51873FA
:102D7800036501F51E7343650B4604E00649D6E773
:102D8800002243F8042B01F554729A42F8D8704790
:102D98000068004000A4004050A70040002800F050
:102DA800E38038B5044690F85C30D3B12268936963
:102DB80023F010039361FFF759F9054623689A69D0
:102DC80012F0080F12D0FFF751F9401B0A28F5D965
:102DD800236E43F001032366032384F85C3001204B
:102DE80038BD80F85D30FEF773FFDFE79A6942F07F
:102DF80001029A61FFF73AF9054623689A6912F0C9
:102E0800010F0DD1FFF732F9401B0A28F5D9236EBF
:102E180043F001032366032384F85C300120DFE7D5
:102E28009A6942F002029A612268504B9A4242D053
:102E3800237C012B45D02268936943F040039361BA
:102E4800637C012B43D02268936923F48043936108
:102E5800A37C012B41D02268936943F4805393618A
:102E68002268936923F44073A1680B439361226835
:102E7800936923F0A40393612268136923F0100374
:102E88001361E368012B2ED0002B31D0022B54D0D4
:102E98002268936943F0800393612268136943F0C1
:102EA80010031361E368032B22D12268936943F06E
:102EB800200393611CE06268A3F58063C3F80025D2
:102EC800B6E72268936923F040039361B8E7226864
:102ED800936943F480439361BAE72268936923F4C2
:102EE80080539361BCE72268936943F004039361BC
:102EF800A3695A1EE369013B1B0243EA4263226A43
:102F0800013A13436269013A216843EA0243CB61FB
:102F1800A368B3F5407F16D02268D2F8C030E16BC1
:102F28000B43C2F8C0302046FFF7FCFE0020A06526
:102F38002066012384F85C3052E72268936943F0E5
:102F480020039361D4E7A36A013BE26A013A43EAAA
:102F58000223226B013A43EA0213626A013A2168AA
:102F680043EA0243CB60D7E7012070470064004082
:102F78007047704770477047704770477047704791
:102F88007047704770472DE9F843044603681A6D87
:102F980002F4E0595A6D09EA02091A6D02F00708AD
:102FA8005A6D08EA02081F6D07F038075A6D174076
:102FB8001D6D05F471055A6D15401E6D06F46026E9
:102FC8005A6D16401A6D12F0400F03D05A6D12F068
:102FD800400F51D123681A6D12F4807F03D05A6DC7
:102FE80012F4807F4DD1B9F1000F56D1B8F1000F1E
:102FF8005BD1002F61D123681A6D12F4007F03D0D2
:103008005A6D12F4007F5FD123681A6D12F0800F99
:1030180003D05A6D12F0800F5DD123681A6D12F437
:10302800005F03D05A6D12F4005F5FD123681A6DF8
:1030380012F4004F03D05A6D12F4004F5DD123688B
:103048001A6D12F4804F0AD05A6D12F4804F06D0D0
:103058004FF480421A65236E43F080032366002EE6
:1030680052D125B123681D65236E2B432366236E39
:10307800002B50D1BDE8F88340221A65FFF780FF86
:10308800A8E7D3F8D810D3F8E0204FF4807018657B
:1030980011402046FFF771FFA5E72368C3F8509059
:1030A80049462046FFF764FFA0E72368C3F850802D
:1030B80041462046FFF75DFF9BE723681F653946B9
:1030C8002046FFF757FF96E74FF400721A6520462F
:1030D800FFF751FF98E7D3F8D410D3F8DC2080200D
:1030E800186511402046FFF747FF96E74FF4005256
:1030F8001A652046FFF742FF98E74FF400421A6529
:103108002046FFF73CFF9AE723681E6531462046B4
:10311800FFF738FFA5E72046FFF733FFAAE70000CF
:1031280070B582B0002365E085685E000324B44072
:1031380025EA0405CC68B4402C438460456825EA38
:103148000C054C68C4F300149C402C43446062E0B6
:10315800DD08083550F8254003F0070C4FEA8C0CC1
:103168004FF00F0E0EFA0CFE24EA0E0E0C6904FA4C
:103178000CF444EA0E0440F8254063E0052400E01E
:10318800002404FA0EF42C430CF1020C574D45F8B8
:103198002C40574CA568D44325EA0206D1F804C050
:1031A8001CF4801F01D042EA0506514DAE60ED685F
:1031B80004EA0506D1F804C01CF4001F01D042EA55
:1031C80005064B4DEE606D6804EA0506D1F804C0AB
:1031D8001CF4003F01D042EA0506454D6E602D689B
:1031E8002C404E6816F4803F01D042EA0504404A5C
:1031F800146001330A6832FA03F474D04FF0010CFA
:103208000CFA03FC1CEA0202F3D04C6804F0030435
:10321800013C012C88D94C6804F00304032C0CD021
:10322800C4685D004FF0030C0CFA05FC24EA0C0C92
:103238008C68AC4044EA0C04C4604C6804F0030495
:10324800022C85D004684FEA430E4FF0030C0CFAA9
:103258000EFC24EA0C0C4C6804F0030404FA0EF487
:1032680044EA0C0404604C6814F4403FC1D0214C7B
:10327800256E45F001052566246E04F001040194CD
:10328800019C4FEA930C0CF10205184C54F8255098
:1032980003F0030E4FEA8E0E0F2404FA0EF425EA0B
:1032A8000405B0F1904F3FF46BAF134CA04212D01D
:1032B80004F58064A04210D004F58064A0420ED0CA
:1032C80004F58064A0420CD004F58064A0423FF469
:1032D80055AF062455E7012453E7022451E7032498
:1032E8004FE704244DE702B070BD00BF0000014065
:1032F800000401400010024000040048036919421C
:1033080001D001207047002070470AB181617047E1
:1033180081627047436901EA030221EA030141EA35
:103328000241816170470000002836D13E4B1B687E
:1033380003F4C063B3F5806F08D03B4AD2F88030FD
:1033480023F48073C2F8803000207047364AD2F8E0
:10335800803023F48073C2F88030136823F4C0638C
:1033680043F400731360314B1B68322202FB03F3F2
:103378002F4AA2FB03239B0C013300E0013B2A4A9E
:10338800526912F4806F01D0002BF7D1264B5B698C
:1033980013F4806F44D100207047B0F5007F08D047
:1033A800214A136823F4C06343F480631360002048
:1033B80070471D4B1B6803F4C063B3F5806F08D0DA
:1033C800194AD2F8803043F48073C2F88030002064
:1033D8007047154AD2F8803043F48073C2F88030C1
:1033E800136823F4C06343F4007313600F4B1B6826
:1033F800322202FB03F30E4AA2FB03239B0C013388
:1034080000E0013B084A526912F4806F01D0002B9A
:10341800F7D1054B5B6913F4806F03D10020704727
:103428000320704703207047007000400000002010
:1034380083DE1B43024A936843F4804393607047DA
:1034480000700040124BDA6802F00302DB68C3F335
:1034580003130133032A11D00E48B0FBF3F00C4BD1
:10346800DB68C3F3062303FB00F0094BDB68C3F3F7
:10347800416301335B00B0FBF3F070470648B0FBD3
:10348800F3F0034BDB68C3F3062303FB00F0ECE720
:10349800001002400024F40000127A00002800F016
:1034A800548270B582B00446036813F0010F37D018
:1034B800A44A936803F00C03D26802F003020C2BB1
:1034C80023D0082B23D06368B3F5803F4ED0B3F5E3
:1034D800A02F51D09B4B1A6822F480321A601A68C8
:1034E80022F480221A606368002B52D0FEF7BEFDDA
:1034F8000546944B1B6813F4003F11D1FEF7B6FD47
:10350800401B6428F5D9032028E2032AD9D18D4B22
:103518001B6813F4003F03D06368002B00F0178288
:10352800236813F0020F5DD0864A936803F00C03FA
:10353800D26802F003020C2B3AD0042B3AD0E3688D
:10354800002B75D07F4A136843F480731360FEF72D
:103558008DFD05467B4B1B6813F4806F5FD1FEF72A
:1035680085FD401B0228F5D90320F7E1754A136849
:1035780043F480331360B6E703F18043A3F53C338B
:103588001A6842F480221A601A6842F480321A607B
:10359800A9E7FEF76BFD05466A4B1B6813F4003F6D
:1035A800BED0FEF763FD401B6428F5D90320D5E1A2
:1035B800022AC2D1634B1B6813F4806F03D0E368FF
:1035C800002B00F0C6815F4A536823F0FE4321694F
:1035D80043EA016353605C4B1868FEF703FD00285B
:1035E80040F0B981236813F0080F4CD063699BB38E
:1035F800544AD2F8943043F00103C2F89430FEF7ED
:1036080035FD05464F4BD3F8943013F0020F3AD1ED
:10361800FEF72CFD401B0228F4D903209EE1494AFD
:10362800536823F0FE43216943EA01635360D9E7F5
:10363800444A136823F480731360FEF717FD0546A8
:10364800404B1B6813F4806FCCD0FEF70FFD401B76
:103658000228F5D9032081E13A4AD2F8943023F0C0
:103668000103C2F89430FEF701FD0546354BD3F847
:10367800943013F0020F06D0FEF7F8FC401B022826
:10368800F4D903206AE1236813F0040F00F0818065
:103698002C4B9B6D13F0805F36D12A4B9A6D42F00C
:1036A80080529A659B6D03F080530193019B01251D
:1036B800264B1B6813F4807F28D0A368012B39D0D0
:1036C800052B45D01F4BD3F8902022F00102C3F8F8
:1036D8009020D3F8902022F00402C3F89020A36829
:1036E800002B43D0FEF7C2FC0646164BD3F89030A9
:1036F80013F0020F4CD1FEF7B9FC801B41F288335E
:103708009842F2D9032029E10025D1E70F4A13682E
:1037180043F480731360FEF7A9FC06460B4B1B6845
:1037280013F4807FC9D1FEF7A1FC801B0228F5D9CC
:10373800032013E1034AD2F8903043F00103C2F8A2
:103748009030CCE7001002400800002000700040D4
:103758008A4BD3F8902042F00402C3F89020D3F8A3
:10376800902042F00102C3F89020B8E7FEF77EFCF3
:103778000646824BD3F8903013F0020F08D0FEF7BC
:1037880075FC801B41F288339842F2D90320E5E0AA
:10379800E5B9236813F0200F35D0A369E3B1774A60
:1037A800D2F8983043F00103C2F89830FEF75EFC77
:1037B8000546724BD3F8983013F0020F23D1FEF769
:1037C80055FC401B0228F4D90320C7E06B4A936DCF
:1037D80023F080539365DCE7684AD2F8983023F0E9
:1037E8000103C2F89830FEF741FC0546634BD3F855
:1037F800983013F0020F06D0FEF738FC401B022861
:10380800F4D90320AAE0E369002B00F0A6805B4A04
:10381800926802F00C020C2A69D0022B1DD0574B7B
:103828001A6822F080721A60DA6822F00302DA60FD
:10383800DA6822F0887222F48032DA60FEF716FC29
:1038480004464E4B1B6813F0007F4ED0FEF70EFC6B
:10385800001B0228F5D9032080E0484A136823F0AA
:1038680080731360FEF702FC0546444B1B6813F097
:10387800007F06D0FEF7FAFB401B0228F5D903208B
:103888006CE03E4AD3683E491940236A606A0138B1
:1038980043EA0013A06A43EA0023206B400801387A
:1038A80043EA4053606B4008013843EA4063E06AEA
:1038B80043EAC0631943D160136843F0807313600F
:1038C800D36843F08073D360FEF7D0FB04462B4BDC
:1038D8001B6813F0007F06D1FEF7C8FB001B022807
:1038E800F5D903203AE0002038E0002036E0012B2B
:1038F80036D0224BDB6803F00301226A914231D1B2
:1039080003F0F002616A0139B2EB011F2CD103F414
:10391800FE42A16AB2EB012F28D103F07842E16A96
:10392800B2EBC16F24D103F4C001226B5208013AF3
:10393800B1EB425F1ED103F0C063626B5208013ADB
:10394800B3EB426F18D1002008E001207047012036
:1039580004E0012002E0012000E0002002B070BD78
:103968000120FBE70120F9E70120F7E70120F5E74F
:103978000120F3E70120F1E70120EFE70010024002
:103988000C809F011E4B9B6803F00C03042B33D063
:103998001B4B9B6803F00C03082B2FD0184B9B681C
:1039A80003F00C030C2B01D000207047144BDA688D
:1039B80002F00302DB68C3F303130133032A11D0B7
:1039C8001048B0FBF3F00E4BDB68C3F3062303FB90
:1039D80000F00B4BDB68C3F3416301335B00B0FBC2
:1039E800F3F070470848B0FBF3F0054BDB68C3F30E
:1039F800062303FB00F0ECE70248704702487047D3
:103A0800001002400024F40000127A00002800F0A0
:103A1800E680F8B50C460546744B1B6803F00F03A7
:103A28008B420BD2714A136823F00F030B431360C8
:103A3800136803F00F038B4240F0D3802E6816F012
:103A480001065FD06B68032B2FD0022B4DD0684B3B
:103A58001B6813F4806F00F0C680FFF793FF654B77
:103A680098424DD9624A936823F0F00343F08003EB
:103A7800936080265E4A936823F0030369680B43CA
:103A88009360FEF7F3FA0746594B9B6803F00C0363
:103A98006A68B3EB820F35D0FEF7E8FAC01B41F233
:103AA80088339842F0D9032078E0514B1B6813F013
:103AB800007F01D1012071E0FFF7C4FC4D4B984213
:103AC8001AD94B4B9B6813F0F00F05D02E6816F0EF
:103AD8000206CFD0AB688BB9454A936823F0F00350
:103AE80043F0800393608026C4E7414B1B6813F4BE
:103AF800003FB2D1012051E00026BBE70026B9E71C
:103B08000026B7E72B6813F0020F48D013F0040F14
:103B180004D0374A936843F4E06393602B6813F04A
:103B2800080F06D0324A936823F47C5343F4E063C9
:103B380093602F4A936823F0F003A9680B439360BE
:103B48002A4B1B6803F00F03A34230D82B6813F0ED
:103B5800040F06D0264A936823F4E063E9680B4310
:103B680093602B6813F0080F07D0214A936823F459
:103B78006053296943EAC1039360FFF703FF1C4BB5
:103B88009B68C3F303131C4AD35C03F01F03D8409C
:103B98001A4B18601A4B1868FEF724FAF8BD802EE5
:103BA800CED1134A936823F0F0039360C8E70F4A15
:103BB800136823F00F0323431360FEF757FA0646F2
:103BC8000A4B1B6803F00F03A342BFD0FEF74EFA5F
:103BD800801B41F288339842F2D90320DEE70120A6
:103BE80070470120DAE70120D8E700BF0020024033
:103BF8000010024000B4C4048C64000800000020D7
:103C080008000020014B1868704700BF0000002022
:103C180008B5FFF7F7FF054B9B68C3F30223044A77
:103C2800D35C03F01F03D84008BD00BF001002405A
:103C38008464000808B5FFF7E5FF054B9B68C3F3EC
:103C4800C223044AD35C03F01F03D84008BD00BF59
:103C58000010024084640008F0B583B0044603688D
:103C680013F4002F6ED0354B9B6D13F0805F1ED17F
:103C7800324B9A6D42F080529A659B6D03F08053E7
:103C88000193019B01262E4A136843F48073136045
:103C9800FEF7ECF905462A4B1B6813F4807F08D120
:103CA800FEF7E4F9401B0228F5D9032502E00026B7
:103CB800E9E7002545BB214BD3F8903013F4407356
:103CC80015D0E26C9A4212D01C4AD2F8903023F4F4
:103CD8004073D2F8901041F48031C2F89010D2F8B5
:103CE800901021F48031C2F89010C2F8903013F08F
:103CF800010F10D145B9114AD2F8903023F440731E
:103D0800E16C0B43C2F89030EEB10C4A936D23F08E
:103D18008053936517E0FEF7A9F90746074BD3F8D8
:103D2800903013F0020FE5D1FEF7A0F9C01B41F265
:103D380088339842F2D90325DCE700BF001002401F
:103D4800007000400025236813F0010F08D0984A3E
:103D5800D2F8883023F0030361680B43C2F8883037
:103D6800236813F0020F08D0914AD2F8883023F064
:103D78000C03A1680B43C2F88830236813F0040FC2
:103D880008D08B4AD2F8883023F03003E1680B431F
:103D9800C2F88830236813F0080F08D0844AD2F894
:103DA800883023F0C00321690B43C2F888302368A8
:103DB80013F0100F08D07E4AD2F8883023F44073ED
:103DC80061690B43C2F88830236813F0200F08D0CC
:103DD800774AD2F8883023F44063A1690B43C2F8CC
:103DE8008830236813F0400F08D0714AD2F8883021
:103DF80023F44053E1690B43C2F88830236813F079
:103E0800800F08D06A4AD2F8883023F44043216AE8
:103E18000B43C2F88830236813F4807F08D0644AC3
:103E2800D2F8883023F44033616A0B43C2F88830F3
:103E3800236813F4007F08D05D4AD2F8883023F451
:103E48004023A16A0B43C2F88830236813F4806FBB
:103E58000CD0574AD2F8883023F44013E16A0B4358
:103E6800C2F88830E36AB3F5801F79D0236813F469
:103E7800006F0CD04E4AD2F8883023F44003216BEF
:103E88000B43C2F88830236BB3F5800F6DD02368DD
:103E980013F4805F0CD0464AD2F8883023F0407380
:103EA800616B0B43C2F88830636BB3F1807F61D0DC
:103EB800236813F4005F0CD03D4AD2F8883023F011
:103EC8004063A16B0B43C2F88830A36BB3F1006F5A
:103ED80055D0236813F4804F0CD0354AD2F8883077
:103EE80023F04063E16B0B43C2F88830E36BB3F116
:103EF800006F49D0236813F4004F0CD02C4AD2F835
:103F0800883023F04053216C0B43C2F88830236C6F
:103F1800B3F1805F3DD0236813F4803F0CD0244A6E
:103F2800D2F8883023F04043616C0B43C2F88830E4
:103F3800636CB3F1804F31D0236813F4802F0CD019
:103F48001B4AD2F89C3023F44013A16C0B43C2F8EF
:103F58009C30A36CB3F5001F25D0284603B0F0BDF4
:103F6800D36843F48013D36080E7D36843F48013A5
:103F7800D3608CE7D36843F48013D36098E7D368A1
:103F880043F48013D360A4E7D36843F48013D36069
:103F9800B0E7D36843F48033D360BCE7D36843F415
:103FA8008033D360C8E7D36843F48013D360D4E781
:103FB8000010024030B4036A23F001030362026A6E
:103FC8004468836923F4803323F073030D681D4329
:103FD80022F002028B681343204A904213D002F564
:103FE800006290420FD002F5406290420BD002F579
:103FF8008062904207D002F58062904203D002F5B9
:104008000062904205D123F00803CA681A4322F0DF
:104018000403124A904213D002F5006290420FD076
:1040280002F5406290420BD002F58062904207D0C0
:1040380002F58062904203D002F50062904205D1F9
:1040480024F440744A6922438C69144344608561AE
:104058004A684263036230BC704700BF002C0140CD
:1040680030B4036A23F480730362036A4468C26944
:1040780022F4803222F073020D68154323F4007392
:104088008A6843EA02231C4A904207D002F500627C
:10409800904203D002F5E052904206D123F4006327
:1040A800CA6843EA022323F48063134A904213D078
:1040B80002F5006290420FD002F5406290420BD0A8
:1040C80002F58062904207D002F58062904203D0E8
:1040D80002F50062904207D124F440524C6942EA4A
:1040E80004128C6942EA04144460C5614A68C263D8
:1040F800036230BC704700BF002C014030B4036A33
:1041080023F480530362036A4468C26922F0807210
:1041180022F4E6420D6842EA052223F400538D6832
:1041280043EA05331B4DA84207D005F50065A842B0
:1041380003D005F5E055A84206D123F40043CD6825
:1041480043EA053323F48043124DA84213D005F502
:104158000065A8420FD005F54065A8420BD005F5CB
:104168008065A84207D005F58065A84203D005F50B
:104178000065A84207D124F4404C4C694CEA841CE1
:104188008C694CEA84144460C2614A680264036220
:1041980030BC7047002C014030B4036A23F48033EC
:1041A8000362036A4468026D22F4803222F07002CE
:1041B8000D68154323F400338A6843EA0243114A21
:1041C800904213D002F5006290420FD002F540628F
:1041D80090420BD002F58062904207D002F58062CF
:1041E800904203D002F50062904204D124F4803456
:1041F8004A6944EA0224446005654A6882640362A5
:1042080030BC7047002C014030B4036A23F480139B
:104218000362036A4468026D22F0807222F4E0426D
:104228000D6842EA052223F400138D6843EA05531A
:10423800114DA84213D005F50065A8420FD005F529
:104248004065A8420BD005F58065A84207D005F562
:104258008065A84203D005F50065A84204D124F47E
:1042680080244D6944EA8524446002654A68C26432
:10427800036230BC704700BF002C014010B4036AD1
:10428800046A24F001040462846924F0F00C4CEA06
:10429800021223F00A030B438261036210BC7047C9
:1042A80010B4036A23F0100303628469036A24F4D8
:1042B800704C4CEA023223F0A00343EA01138261F6
:1042C800036210BC7047836823F4401323F0700323
:1042D8000B4343F00703836070477047704770478C
:1042E80070477047704710B5044603681A6912F0A2
:1042F800020F12D0DA6812F0020F0ED06FF002022D
:104308001A610123037703689B6913F0030F00F018
:104318009F80FFF7E5FF0023237723681A6912F0CF
:10432800040F13D0DA6812F0040F0FD06FF00402F4
:104338001A610223237723689B6913F4407F00F0F6
:104348008D802046FFF7CCFF0023237723681A6966
:1043580012F0080F12D0DA6812F0080F0ED06FF0C2
:1043680008021A61042323772368DB6913F0030F1B
:104378007BD02046FFF7B4FF0023237723681A6910
:1043880012F0100F12D0DA6812F0100F0ED06FF082
:1043980010021A61082323772368DB6913F4407F2E
:1043A8006AD02046FFF79CFF0023237723681A6909
:1043B80012F0010F03D0DA6812F0010F63D12368FD
:1043C8001A6912F0800F03D0DA6812F0800F61D1F9
:1043D80023681A6912F4807F03D0DA6812F0800F1C
:1043E8005FD123681A6912F0400F03D0DA6812F01F
:1043F800400F5DD123681A6912F0200F03D0DA68E4
:1044080012F0200F5BD123681A6912F4801F03D0C1
:10441800DA6812F4801F59D123681A6912F4001F50
:1044280003D0DA6812F4001F57D123681A6912F40E
:10443800800F03D0DA6812F4800F55D123681A6907
:1044480012F4000F03D0DA6812F4000F53D110BD34
:10445800FFF745FF2046FFF744FF5CE72046FFF7DC
:104468003EFF2046FFF73DFF6EE72046FFF737FF88
:104478002046FFF736FF7FE72046FFF730FF20464C
:10448800FFF72FFF90E76FF001021A612046FFF750
:1044980025FF94E76FF080021A61204600F0E5FAE4
:1044A80096E76FF480721A61204600F0DFFA98E709
:1044B8006FF040021A612046FFF714FF9AE76FF089
:1044C80020021A61204600F0CFFA9CE76FF48012B0
:1044D8001A61204600F0CBFA9EE76FF400121A61C9
:1044E800204600F0C5FAA0E76FF480021A61204662
:1044F80000F0BFFAA2E76FF400021A61204600F04C
:10450800B9FAA4E70368324A904212D0B0F1804F5A
:104518000FD0A2F5943290420BD002F580629042FF
:1045280007D002F59632904203D002F5E05290424D
:1045380003D123F070034A681343254A90421ED0E2
:10454800B0F1804F1BD0A2F59432904217D002F5FB
:104558008062904213D002F5963290420FD002F555
:10456800406290420BD002F58062904207D002F57B
:104578008062904203D002F50062904203D123F496
:104588004073CA68134323F080034A6913430360E6
:104598008B68C3620B6883620D4B984213D003F596
:1045A800006398420FD003F5406398420BD003F59F
:1045B8008063984207D003F58063984203D003F5DF
:1045C8000063984201D10B6903630123436170477B
:1045D800002C014060B310B5044690F83D3013B389
:1045E800022384F83D30214651F8040BFFF78AFF77
:1045F800012384F8483084F83E3084F83F3084F84A
:10460800403084F8413084F8423084F8433084F8EC
:10461800443084F8453084F8463084F8473084F8CC
:104628003D30002010BD80F83C30FDF7A1FBD7E7F6
:104638000120704760B310B5044690F83D3013B3BD
:10464800022384F83D30214651F8040BFFF75AFF46
:10465800012384F8483084F83E3084F83F3084F8E9
:10466800403084F8413084F8423084F8433084F88C
:10467800443084F8453084F8463084F8473084F86C
:104688003D30002010BD80F83C30FFF726FED7E70C
:104698000120704730B4036A23F010030362036AF1
:1046A8004468826922F0807222F4E6420D6842EA88
:1046B800052223F020038D6843EA05131B4DA84209
:1046C80007D005F50065A84203D005F5E055A842D6
:1046D80006D123F08003CD6843EA051323F0400395
:1046E800124DA84213D005F50065A8420FD005F574
:1046F8004065A8420BD005F58065A84207D005F5AE
:104708008065A84203D005F50065A84207D124F4C6
:10471800406C4C694CEA840C8C694CEA8404446013
:1047280082614A688263036230BC7047002C014092
:1047380038B590F83C30012B00F0958004460D46C2
:10474800012380F83C30142A00F28880DFE802F068
:104758000B8686861F868686348686864886868663
:104768005D86868671000068FFF724FC22689369DD
:1047780043F0080393612268936923F0040393616B
:104788002268936929690B439361002067E00068F8
:10479800FFF780FF2268936943F4006393612268FE
:1047A800936923F48063936122689369296943EAD2
:1047B80001239361002052E00068FFF751FC226852
:1047C800D36943F00803D3612268D36923F0040353
:1047D800D3612268D36929690B43D36100203EE085
:1047E8000068FFF78BFC2268D36943F40063D36148
:1047F8002268D36923F48063D3612268D369296965
:1048080043EA0123D361002029E00068FFF7C4FCD4
:104818002268136D43F0080313652268136D23F0B3
:10482800040313652268136D29690B43136500207F
:1048380015E00068FFF7E8FC2268136D43F4006395
:1048480013652268136D23F4806313652268136D62
:10485800296943EA01231365002000E001200023B1
:1048680084F83C3038BD0220FCE710B4846824F496
:104878007F4C42EA03220A4342EA0C02826010BCDF
:104888007047000090F83C30012B00F0928010B582
:104898000446012380F83C30022380F83D3002684A
:1048A8009068454B034093600B68702B58D031D803
:1048B800502B6FD00CD9602B2AD1CA684968206860
:1048C800FFF7EEFC60212068FFF7FDFC002035E0D3
:1048D800402B0AD1CA6849682068FFF7CFFC4021FD
:1048E8002068FFF7F0FC002028E05ED8202B07D0D6
:1048F80003D9302B04D0012020E00BB1102B05D1B7
:1049080019462068FFF7DFFC002017E0012015E0BA
:10491800012013E0B3F5005F2FD00BD9274A93424B
:10492800EED012D9264A9342EAD020329342E7D0F9
:10493800012003E0B3F5805F39D10020012384F81A
:104948003D30002384F83C3010BD203A9342D7D044
:1049580010329342D4D0B3F1101FD1D00120EDE72B
:10496800CB684A6889682068FFF77FFF22689368E8
:1049780043F0770393600020E0E7CB684A688968D2
:104988002068FFF772FF2268936843F480439360BE
:104998000020D3E7CA6849682068FFF76FFC5021F8
:1049A8002068FFF790FC0020C8E70120C6E7012037
:1049B800C4E70220704700BF8800CEFF4000100007
:1049C8005000100090F83C20012A48D030B403462B
:1049D800012280F83C20022280F83D2000684268CD
:1049E8008468204DA84207D005F50065A84203D089
:1049F80005F5E055A84203D122F470024D682A4318
:104A080022F0007222F070020D682A4342601A6890
:104A18001448824216D0B2F1804F13D0A0F59430DA
:104A280082420FD000F5806082420BD000F59630AC
:104A3800824207D000F54060824203D000F58050E2
:104A4800824204D124F080048968214391600122C4
:104A580083F83D20002083F83C0030BC70470220DA
:104A6800704700BF002C014070477047704770477F
:104A7800704770477047026852E8003F23F490730C
:104A880042E800310029F6D1026802F1080353E830
:104A9800003F23F0805323F00103083242E800313D
:104AA8000029F1D1C36E012B06D02023C0F888302D
:104AB8000023C36603677047026852E8003F23F08B
:104AC800100342E800310029F6D1EEE7D0F884302F
:104AD800212B00D07047B0F856309BB293B90268CA
:104AE80052E8003F23F0800342E800310029F6D164
:104AF800026852E8003F43F0400342E800310029D1
:104B0800F6D17047036D1A7803689A62036D013312
:104B18000365B0F856309BB2013B9BB2A0F8563003
:104B2800D8E7D0F88430212B00D07047B0F8563041
:104B38009BB293B9026852E8003F23F0800342E831
:104B480000310029F6D1026852E8003F43F04003E3
:104B580042E800310029F6D17047036D1B880268CE
:104B6800C3F308039362036D02330365B0F856304C
:104B78009BB2013B9BB2A0F85630D6E7D0F8843000
:104B8800212B00D07047B0F86A3017E0026802F1B4
:104B9800080353E8003F23F40003083242E80031D9
:104BA8000029F3D1026852E8003F43F0400342E88D
:104BB80000310029F6D17047013B9BB2002BE1D0B0
:104BC800B0F8562092B2002AE0D00268D16911F0FC
:104BD800800FF1D0016D09789162026D0132026592
:104BE800B0F8562092B2013A92B2A0F85620E3E704
:104BF800D0F88430212B00D07047B0F86A3017E025
:104C0800026802F1080353E8003F23F40003083266
:104C180042E800310029F3D1026852E8003F43F02E
:104C2800400342E800310029F6D17047013B9BB2AE
:104C3800002BE1D0B0F8562092B2002AE0D00268EA
:104C4800D16911F0800FF1D0016D0988C1F3080115
:104C58009162026D02320265B0F8562092B2013AB2
:104C680092B2A0F85620E1E7D0F88430202B50D13A
:104C7800002950D0002A50D090F88030012B4ED017
:104C8800012380F880300165A0F85420A0F8562050
:104C980000234367C0F88C302123C0F88430436E6A
:104CA800B3F1005F13D08368B3F5805F2BD01D4B41
:104CB8004367002380F88030026852E8003F43F0E1
:104CC800800342E800310029F6D10020704783684C
:104CD800B3F5805F11D0144B4367002380F8803010
:104CE800026802F1080353E8003F43F40003083266
:104CF80042E800310029F3D1E7E70369002BEAD144
:104D08000A4B4367E9E70369002BD0D1084B436797
:104D1800CFE702207047012070470120704702202A
:104D2800704700BFD54A0008854B0008F94B0008BA
:104D38002B4B0008704708B5026852E8003F23F083
:104D4800400342E800310029F6D12023C0F884301E
:104D580000234367FFF7EEFF08BD704708B5806A78
:104D68000023A0F85E30A0F85630FFF7F6FF08BD24
:104D78007047000070B504460268D36910689168EE
:104D880040F60F0C13EA0C0F0DD113F0200F10D0C2
:104D980010F0200F02D111F0805F0AD0236F93B377
:104DA800204698472FE0B04D0D402DD1AF4E3042F0
:104DB8002AD1E56E012D00F0BD8013F4801F03D0C9
:104DC80011F4800F40F0568113F0800F07D010F0D7
:104DD800800F40F0568111F4000F40F0528113F01B
:104DE800400F03D010F0400F40F0528113F4000F31
:104DF80003D010F0804F40F04F8113F0807F02D035
:104E08000028C0F24D8170BD13F0010F09D010F4D5
:104E1800807F06D001261662D4F88C203243C4F86D
:104E28008C2013F0020F0BD011F0010F08D022686C
:104E380002261662D4F88C2042F00402C4F88C20B2
:104E480013F0040F0BD011F0010F08D022680426CC
:104E58001662D4F88C2042F00202C4F88C2013F0B9
:104E6800080F0BD010F0200F00D13DB122680825A3
:104E78001562D4F88C202A43C4F88C2013F4006FF0
:104E88000CD010F0806F09D022684FF400651562CD
:104E9800D4F88C2042F02002C4F88C20D4F88C205E
:104EA800002AB0D013F0200F09D010F0200F02D143
:104EB80011F0805F03D0236F0BB120469847D4F8D8
:104EC8008C2023689B6813F0400F02D112F0280F42
:104ED80029D02046FFF7CFFD23689B6813F0400FC9
:104EE8001DD0226802F1080353E8003F23F0400375
:104EF800083242E800310029F3D1E36F5BB15C4A24
:104F08009A63E06FFDF76CFE00283FF47CAFE06F1A
:104F1800836B984777E72046FFF71FFF73E7204624
:104F2800FFF71BFF6FE72046FFF717FF0023C4F8C2
:104F38008C3068E713F0100F3FF43FAF10F0100FFC
:104F48003FF43BAF1023136223689B6813F0400FB4
:104F58004FD0E26F13685B689BB2002B3FF453AFEE
:104F6800B4F85C1099427FF64EAFA4F85E3013682F
:104F78001B6813F0200F31D1226852E8003F23F458
:104F8800807342E800310029F6D1226802F1080353
:104F980053E8003F23F00103083242E800310029BA
:104FA800F3D1226802F1080353E8003F23F04003DD
:104FB800083242E800310029F3D12023C4F88830B0
:104FC8000023E366226852E8003F23F0100342E81A
:104FD80000310029F6D1E06FFDF7CCFDB4F85C1084
:104FE800B4F85E309BB2C91A89B22046FFF7C0FEFA
:104FF80009E7B4F85C10B4F85E309BB2C91A89B2FC
:10500800B4F85E309BB2002B3FF4FDAE00293FF4AC
:10501800FAAE226852E8003F23F4907342E8003069
:105028000028F6D1226802F1080353E8003F23F074
:10503800805323F00103083242E800300028F1D100
:105048002023C4F888300023E3662367226852E8E7
:10505800003F23F0100342E800300028F6D1204634
:10506800FFF786FECFE600BF010000102001000414
:10507800654D00084FF480131362204600F060FE6F
:10508800C1E6636F002B3FF4BEAE20469847BAE6F0
:105098002046FFF750FEB6E6204600F053FEB2E683
:1050A800204600F04EFEAEE608B5B0F86030D0F805
:1050B8008820222A05D00268936943F00803936187
:1050C80008BD0268516ADBB2826D0B401370836DB4
:1050D80001338365B0F85E309BB2013B9BB2A0F808
:1050E8005E30B0F85E309BB2002BE9D1026852E81E
:1050F800003F23F4907342E800310029F6D102689A
:1051080002F1080353E8003F23F00103083242E8A4
:1051180000310029F3D12023C0F888300023036729
:10512800C36E012B16D10023C366026852E8003F04
:1051380023F0100342E800310029F6D10368DA6948
:1051480012F0100F01D010221A62B0F85C10FFF7AD
:105158000FFEB5E7FCF736FBB2E708B5B0F86020FC
:10516800D0F88830222B05D00268936943F00803F1
:10517800936108BD03685B6A816D13400B80836D82
:1051880002338365B0F85E309BB2013B9BB2A0F856
:105198005E30B0F85E309BB2002BEAD1026852E86C
:1051A800003F23F4907342E800310029F6D10268E9
:1051B80002F1080353E8003F23F00103083242E8F4
:1051C80000310029F3D12023C0F888300023036779
:1051D800C36E012B16D10023C366026852E8003F54
:1051E80023F0100342E800310029F6D10368DA6998
:1051F80012F0100F01D010221A62B0F85C10FFF7FD
:10520800B7FDB6E7FCF7DEFAB3E700002DE9F8438F
:10521800B0F860600368DD69D3F80090D3F80880BF
:10522800D0F88820222A05D09A6942F008029A61AB
:10523800BDE8F8830446B0F8687008E0D4F88C300C
:10524800002B4CD1B4F85E309BB2002B4ED0002F0F
:1052580000F0878015F0200F00F083802368596ADA
:10526800F3B2A26D0B401370A36D0133A365B4F8BC
:105278005E309BB2013B9BB2A4F85E302368DD69C7
:1052880015F0070FDED015F0010F09D019F4807F53
:1052980006D001221A62D4F88C301343C4F88C303B
:1052A80015F0020F0BD018F0010F08D02368022266
:1052B8001A62D4F88C3043F00403C4F88C3015F02B
:1052C800040FBBD018F0010FB8D0236804221A626B
:1052D800D4F88C3043F00203C4F88C30AEE7204693
:1052E800FFF73BFD0023C4F88C30ABE7226852E897
:1052F800003F23F4807342E800310029F6D1226888
:1053080002F1080353E8003F23F0805323F0010320
:10531800083242E800310029F1D12023C4F888304E
:1053280000232367E36E012B03D02046FCF74AFADB
:105338008DE70023E366226852E8003F23F010035C
:1053480042E800310029F6D12368DA6912F0100F1B
:1053580001D010221A62B4F85C102046FFF708FD4D
:1053680075E7B4F85E309BB2002B3FF461AFB4F838
:1053780068209A427FF65CAF226802F1080353E87E
:10538800003F23F08053083242E800310029F3D16E
:10539800054B2367226852E8003F43F0200342E8A8
:1053A80000310029F6D143E7B15000082DE9F84350
:1053B800B0F860600368DD69D3F80090D3F808801E
:1053C800D0F88820222A05D09A6942F008029A610A
:1053D800BDE8F8830446B0F8687008E0D4F88C306B
:1053E800002B4BD1B4F85E309BB2002B4DD0002F70
:1053F80000F0868015F0200F00F0828023685B6A39
:10540800A26D33401380A36D0233A365B4F85E30F8
:105418009BB2013B9BB2A4F85E302368DD6915F0AE
:10542800070FDFD015F0010F09D019F4807F06D0DF
:1054380001221A62D4F88C301343C4F88C3015F06A
:10544800020F0BD018F0010F08D0236802221A624D
:10545800D4F88C3043F00403C4F88C3015F0040FF2
:10546800BCD018F0010FB9D0236804221A62D4F80E
:105478008C3043F00203C4F88C30AFE72046FFF7C6
:105488006CFC0023C4F88C30ACE7226852E8003F7B
:1054980023F4807342E800310029F6D1226802F132
:1054A800080353E8003F23F0805323F00103083238
:1054B80042E800310029F1D12023C4F888300023C4
:1054C8002367E36E012B03D02046FCF77BF98EE7B8
:1054D8000023E366226852E8003F23F0100342E805
:1054E80000310029F6D12368DA6912F0100F01D0D3
:1054F80010221A62B4F85C102046FFF739FC76E7F0
:10550800B4F85E309BB2002B3FF462AFB4F8682069
:105518009A427FF65DAF226802F1080353E8003F24
:1055280023F08053083242E800310029F3D1064BBA
:105538002367226852E8003F43F0200342E8003125
:105548000029F6D144E700BF6351000870B504464E
:10555800016883680269134342691343C2691343AC
:105568000868964A02401A430A602268536823F47E
:105578004053E1680B435360A1692268904B9A42FB
:1055880001D0236A1943936823F06E4323F43063F0
:105598000B4393602268D36A23F00F03616A0B43BD
:1055A800D3622368874A934210D0874A934221D016
:1055B800864A934237D0864A93425CD0854A9342C2
:1055C8006BD07F4A93427DD010223AE002F55842D0
:1055D800D2F8882002F00302032A09D8DFE802F093
:1055E8000204870601222CE004222AE0082228E08F
:1055F800102226E002F5E632D2F8882002F00C02EA
:105608000C2A0ED8DFE802F0070D0D0D090D0D0D5F
:10561800750D0D0D0B00002213E0042211E0082285
:105628000FE010220DE002F5E432D2F8882002F0F3
:105638003002202A5FD01AD8002A5ED0102A5ED104
:1056480004225F498B4276D0E069B0F5004F00F044
:10565800C980082A00F23481DFE812F0F700190146
:10566800F50032011C013201320132011F01302ADA
:1056780047D10822E5E702F5E232D2F8882002F0A5
:10568800C002802A3FD004D8FAB3402A3FD104226E
:10569800D7E7C02A3DD10822D3E702F5E032D2F895
:1056A800882002F44072B2F5007F34D005D8A2B346
:1056B800B2F5807F33D10422C3E7B2F5407F30D101
:1056C8000822BEE702F5C832D2F8882002F4406208
:1056D800B2F5006F27D005D83AB3B2F5806F26D15E
:1056E8000422AEE7B2F5406F23D10822A9E70222CF
:1056F800A7E70222A5E70222A3E70022A1E71022DA
:105708009FE710229DE702229BE7002299E71022DB
:1057180097E7102295E7022293E7002291E71022EB
:105728008FE710228DE702228BE7002289E71022FB
:1057380087E7102285E7082A00F2B280DFE802F046
:1057480008B03BB038B0B0B005004FF4004004E0FA
:10575800FEF75EFA002800F0A580626A1E4B33F857
:105768001220B0FBF2F3656805EB4501994200F29F
:105778009B80B3EB053F00F2998000263346314603
:10578800FAF7BCFD090241EA106100026B08C01873
:105798002A46334641F10001FAF7B0FDA0F5407200
:1057A8000E4B9A4200F284802368D860304665E048
:1057B800FEF7E8F8CEE70A48CFE700BFF369FFCF66
:1057C800008000400038014000440040004800408C
:1057D800004C0040005000409C640008FFFC0F0093
:1057E8000024F400082A65D8DFE802F007270564DA
:1057F8002A6464640B00354803E0FEF709FA0028C0
:105808005AD0626A324B33F81230B0FBF3F0626858
:10581800530803EB4003B3FBF2F3A3F110014FF677
:10582800EF7291424AD89AB222F00F02C3F34203B0
:1058380013432268D360002020E0FEF7FBF9DEE77F
:10584800FEF7A0F8DBE7214803E0FEF7E1F90028BE
:1058580038D0626A1E4B33F81230B0FBF3F063683D
:1058680000EB5300B0FBF3F0A0F110024FF6EF731A
:105878009A4229D8236880B2D86000200123A4F86E
:105888006A30A4F8683000232367636770BDFEF7A9
:10589800D1F9DCE7FEF776F8D9E74FF40040D8E70E
:1058A8000120EBE70020E9E70120E7E70120E5E731
:1058B8000120E3E70120E1E70020DFE70120DDE741
:1058C8000120DBE70020D9E70120D7E70024F40016
:1058D8009C640008836A13F0010F06D002685368BD
:1058E80023F40033C16A0B435360836A13F0020F39
:1058F80006D00268536823F48033016B0B4353606E
:10590800836A13F0040F06D00268536823F48023D7
:10591800416B0B435360836A13F0080F06D002688B
:10592800536823F40043816B0B435360836A13F07D
:10593800100F06D00268936823F48053C16B0B43A1
:105948009360836A13F0200F06D00268936823F4EB
:105958000053016C0B439360836A13F0400F0AD025
:105968000268536823F48013416C0B435360436C03
:10597800B3F5801F0BD0836A13F0800F06D002683E
:10598800536823F40023C16C0B43536070470268CB
:10599800536823F4C003816C0B435360EBE72DE994
:1059A800F84305460F4616469946DDF820802B68D1
:1059B800DC6937EA04040CBF01240024B44257D13F
:1059C800B8F1FF3FF3D0FCF751FBA0EB09004045CD
:1059D8002FD8B8F1000F2CD02B681A6812F0040FDA
:1059E800E5D0DA6912F4006FE1D04FF400621A6270
:1059F8002A6852E8003F23F4D07342E800310029B6
:105A0800F6D12A6802F1080353E8003F23F00103A6
:105A1800083242E800310029F3D12023C5F8843048
:105A2800C5F88830C5F88C30002385F8803003200D
:105A38001FE02A6852E8003F23F4D07342E800319F
:105A48000029F6D12A6802F1080353E8003F23F041
:105A58000103083242E800310029F3D12023C5F8B8
:105A68008430C5F88830002385F88030032000E0B2
:105A78000020BDE8F88330B583B004460023C0F8A1
:105A88008C30FCF7F3FA05462268126812F0080F0A
:105A98000FD123681B6813F0040F18D12023C4F812
:105AA8008430C4F888300020E06684F8800003B0B1
:105AB80030BD6FF07E430093034600224FF400117F
:105AC8002046FFF76CFF0028E3D00320EFE76FF0D4
